{
  "contractName": "RecordAdder",
  "abi": [
    {
      "inputs": [],
      "stateMutability": "nonpayable",
      "type": "constructor"
    },
    {
      "anonymous": false,
      "inputs": [
        {
          "indexed": true,
          "internalType": "address",
          "name": "previousOwner",
          "type": "address"
        },
        {
          "indexed": true,
          "internalType": "address",
          "name": "newOwner",
          "type": "address"
        }
      ],
      "name": "OwnershipTransferred",
      "type": "event"
    },
    {
      "anonymous": false,
      "inputs": [
        {
          "indexed": true,
          "internalType": "string",
          "name": "DipID",
          "type": "string"
        },
        {
          "indexed": false,
          "internalType": "uint256",
          "name": "URI",
          "type": "uint256"
        }
      ],
      "name": "recordAdded",
      "type": "event"
    },
    {
      "inputs": [],
      "name": "owner",
      "outputs": [
        {
          "internalType": "address",
          "name": "",
          "type": "address"
        }
      ],
      "stateMutability": "view",
      "type": "function",
      "constant": true
    },
    {
      "inputs": [],
      "name": "renounceOwnership",
      "outputs": [],
      "stateMutability": "nonpayable",
      "type": "function"
    },
    {
      "inputs": [
        {
          "internalType": "address",
          "name": "newOwner",
          "type": "address"
        }
      ],
      "name": "transferOwnership",
      "outputs": [],
      "stateMutability": "nonpayable",
      "type": "function"
    },
    {
      "inputs": [
        {
          "internalType": "string",
          "name": "dipID",
          "type": "string"
        }
      ],
      "name": "addRecord",
      "outputs": [],
      "stateMutability": "nonpayable",
      "type": "function"
    }
  ],
  "bytecode": "0x608060405234801561001057600080fd5b5061003f61002b61004c640100000000026401000000009004565b610054640100000000026401000000009004565b6000600181905550610118565b600033905090565b60008060009054906101000a900473ffffffffffffffffffffffffffffffffffffffff169050816000806101000a81548173ffffffffffffffffffffffffffffffffffffffff021916908373ffffffffffffffffffffffffffffffffffffffff1602179055508173ffffffffffffffffffffffffffffffffffffffff168173ffffffffffffffffffffffffffffffffffffffff167f8be0079c531659141344cd1fd0a4f28419497f9722a3daafe3b4186f6b6457e060405160405180910390a35050565b610840806101276000396000f3fe608060405234801561001057600080fd5b5060043610610069576000357c010000000000000000000000000000000000000000000000000000000090048063715018a61461006e5780638da5cb5b14610078578063d81aa8c414610096578063f2fde38b146100b2575b600080fd5b6100766100ce565b005b6100806100e2565b60405161008d919061039a565b60405180910390f35b6100b060048036038101906100ab919061050f565b61010b565b005b6100cc60048036038101906100c79190610584565b61016b565b005b6100d66101ef565b6100e0600061026d565b565b60008060009054906101000a900473ffffffffffffffffffffffffffffffffffffffff16905090565b6101136101ef565b80604051610121919061062b565b60405180910390207fbb2c83c7f228847b90ec7aff3e018a4986e2c12807940952422ddca49552af6b61015383610331565b604051610160919061065b565b60405180910390a250565b6101736101ef565b600073ffffffffffffffffffffffffffffffffffffffff168173ffffffffffffffffffffffffffffffffffffffff1614156101e3576040517f08c379a00000000000000000000000000000000000000000000000000000000081526004016101da906106f9565b60405180910390fd5b6101ec8161026d565b50565b6101f7610351565b73ffffffffffffffffffffffffffffffffffffffff166102156100e2565b73ffffffffffffffffffffffffffffffffffffffff161461026b576040517f08c379a000000000000000000000000000000000000000000000000000000000815260040161026290610765565b60405180910390fd5b565b60008060009054906101000a900473ffffffffffffffffffffffffffffffffffffffff169050816000806101000a81548173ffffffffffffffffffffffffffffffffffffffff021916908373ffffffffffffffffffffffffffffffffffffffff1602179055508173ffffffffffffffffffffffffffffffffffffffff168173ffffffffffffffffffffffffffffffffffffffff167f8be0079c531659141344cd1fd0a4f28419497f9722a3daafe3b4186f6b6457e060405160405180910390a35050565b60006001805461034191906107b4565b6001819055506001549050919050565b600033905090565b600073ffffffffffffffffffffffffffffffffffffffff82169050919050565b600061038482610359565b9050919050565b61039481610379565b82525050565b60006020820190506103af600083018461038b565b92915050565b6000604051905090565b600080fd5b600080fd5b600080fd5b600080fd5b6000601f19601f8301169050919050565b7f4e487b7100000000000000000000000000000000000000000000000000000000600052604160045260246000fd5b61041c826103d3565b810181811067ffffffffffffffff8211171561043b5761043a6103e4565b5b80604052505050565b600061044e6103b5565b905061045a8282610413565b919050565b600067ffffffffffffffff82111561047a576104796103e4565b5b610483826103d3565b9050602081019050919050565b82818337600083830152505050565b60006104b26104ad8461045f565b610444565b9050828152602081018484840111156104ce576104cd6103ce565b5b6104d9848285610490565b509392505050565b600082601f8301126104f6576104f56103c9565b5b813561050684826020860161049f565b91505092915050565b600060208284031215610525576105246103bf565b5b600082013567ffffffffffffffff811115610543576105426103c4565b5b61054f848285016104e1565b91505092915050565b61056181610379565b811461056c57600080fd5b50565b60008135905061057e81610558565b92915050565b60006020828403121561059a576105996103bf565b5b60006105a88482850161056f565b91505092915050565b600081519050919050565b600081905092915050565b60005b838110156105e55780820151818401526020810190506105ca565b838111156105f4576000848401525b50505050565b6000610605826105b1565b61060f81856105bc565b935061061f8185602086016105c7565b80840191505092915050565b600061063782846105fa565b915081905092915050565b6000819050919050565b61065581610642565b82525050565b6000602082019050610670600083018461064c565b92915050565b600082825260208201905092915050565b7f4f776e61626c653a206e6577206f776e657220697320746865207a65726f206160008201527f6464726573730000000000000000000000000000000000000000000000000000602082015250565b60006106e3602683610676565b91506106ee82610687565b604082019050919050565b60006020820190508181036000830152610712816106d6565b9050919050565b7f4f776e61626c653a2063616c6c6572206973206e6f7420746865206f776e6572600082015250565b600061074f602083610676565b915061075a82610719565b602082019050919050565b6000602082019050818103600083015261077e81610742565b9050919050565b7f4e487b7100000000000000000000000000000000000000000000000000000000600052601160045260246000fd5b60006107bf82610642565b91506107ca83610642565b9250827fffffffffffffffffffffffffffffffffffffffffffffffffffffffffffffffff038211156107ff576107fe610785565b5b82820190509291505056fea26469706673582212200d94e972b6e2f1f4990d38188873a7655032d5e7c5974d4a61c8ccc4ff3742c864736f6c63430008090033",
  "immutableReferences": {},
  "source": "// SPDX-License-Identifier: MIT\npragma solidity ^0.8.9;\n\nimport \"@openzeppelin/contracts/access/Ownable.sol\";\n//import \"https://raw.githubusercontent.com/smartcontractkit/chainlink/develop/evm-contracts/src/v0.6/VRFConsumerBase.sol\";\n\ncontract RecordAdder is Ownable {\n    \n    uint curr_id;\n\n    constructor() public {\n        curr_id = 0;\n    }\n\n    event recordAdded(\n        string indexed DipID, \n        uint256 URI\n    );\n\n    function addRecord(string memory dipID) public onlyOwner{\n        emit recordAdded(dipID, _generateUPtr(dipID));\n    }\n\n    function _generateUPtr(string memory dipID) private returns(uint ptr){\n        curr_id = curr_id + 1;\n        return curr_id;\n    }\n}",
  "sourcePath": "/Users/muhammadmuaz/Documents/GitHub/BlockChain/diplomanator/truffle/contracts/transactions.sol",
  "compiler": {
    "name": "solc",
    "version": "0.8.9+commit.e5eed63a.Linux.g++"
  },
  "schemaVersion": "3.4.13",
  "updatedAt": "2023-04-25T17:06:01.909Z",
  "networkType": "ethereum",
  "devdoc": {
    "kind": "dev",
    "methods": {
      "owner()": {
        "details": "Returns the address of the current owner."
      },
      "renounceOwnership()": {
        "details": "Leaves the contract without owner. It will not be possible to call `onlyOwner` functions anymore. Can only be called by the current owner. NOTE: Renouncing ownership will leave the contract without an owner, thereby removing any functionality that is only available to the owner."
      },
      "transferOwnership(address)": {
        "details": "Transfers ownership of the contract to a new account (`newOwner`). Can only be called by the current owner."
      }
    },
    "version": 1
  },
  "userdoc": {
    "kind": "user",
    "methods": {},
    "version": 1
  }
}