{
  "contractName": "RecordAdder",
  "abi": [
    {
      "inputs": [],
      "stateMutability": "nonpayable",
      "type": "constructor"
    },
    {
      "anonymous": false,
      "inputs": [
        {
          "indexed": true,
          "internalType": "address",
          "name": "previousOwner",
          "type": "address"
        },
        {
          "indexed": true,
          "internalType": "address",
          "name": "newOwner",
          "type": "address"
        }
      ],
      "name": "OwnershipTransferred",
      "type": "event"
    },
    {
      "anonymous": false,
      "inputs": [
        {
          "indexed": true,
          "internalType": "string",
          "name": "dipID",
          "type": "string"
        },
        {
          "indexed": false,
          "internalType": "uint256",
          "name": "ptr",
          "type": "uint256"
        }
      ],
      "name": "recordAdded",
      "type": "event"
    },
    {
      "inputs": [],
      "name": "owner",
      "outputs": [
        {
          "internalType": "address",
          "name": "",
          "type": "address"
        }
      ],
      "stateMutability": "view",
      "type": "function",
      "constant": true
    },
    {
      "inputs": [],
      "name": "renounceOwnership",
      "outputs": [],
      "stateMutability": "nonpayable",
      "type": "function"
    },
    {
      "inputs": [
        {
          "internalType": "address",
          "name": "newOwner",
          "type": "address"
        }
      ],
      "name": "transferOwnership",
      "outputs": [],
      "stateMutability": "nonpayable",
      "type": "function"
    },
    {
      "inputs": [
        {
          "internalType": "string",
          "name": "dipID",
          "type": "string"
        }
      ],
      "name": "addRecord",
      "outputs": [],
      "stateMutability": "nonpayable",
      "type": "function"
    }
  ],
  "bytecode": "0x608060405234801561001057600080fd5b5061002d61002261003a60201b60201c565b61004260201b60201c565b6000600181905550610106565b600033905090565b60008060009054906101000a900473ffffffffffffffffffffffffffffffffffffffff169050816000806101000a81548173ffffffffffffffffffffffffffffffffffffffff021916908373ffffffffffffffffffffffffffffffffffffffff1602179055508173ffffffffffffffffffffffffffffffffffffffff168173ffffffffffffffffffffffffffffffffffffffff167f8be0079c531659141344cd1fd0a4f28419497f9722a3daafe3b4186f6b6457e060405160405180910390a35050565b6107f7806101156000396000f3fe608060405234801561001057600080fd5b506004361061004c5760003560e01c8063715018a6146100515780638da5cb5b1461005b578063d81aa8c414610079578063f2fde38b14610095575b600080fd5b6100596100b1565b005b6100636100c5565b604051610070919061037c565b60405180910390f35b610093600480360381019061008e91906104f1565b6100ee565b005b6100af60048036038101906100aa9190610566565b61014e565b005b6100b96101d1565b6100c3600061024f565b565b60008060009054906101000a900473ffffffffffffffffffffffffffffffffffffffff16905090565b6100f66101d1565b806040516101049190610604565b60405180910390207fbb2c83c7f228847b90ec7aff3e018a4986e2c12807940952422ddca49552af6b61013683610313565b6040516101439190610634565b60405180910390a250565b6101566101d1565b600073ffffffffffffffffffffffffffffffffffffffff168173ffffffffffffffffffffffffffffffffffffffff16036101c5576040517f08c379a00000000000000000000000000000000000000000000000000000000081526004016101bc906106d2565b60405180910390fd5b6101ce8161024f565b50565b6101d9610333565b73ffffffffffffffffffffffffffffffffffffffff166101f76100c5565b73ffffffffffffffffffffffffffffffffffffffff161461024d576040517f08c379a00000000000000000000000000000000000000000000000000000000081526004016102449061073e565b60405180910390fd5b565b60008060009054906101000a900473ffffffffffffffffffffffffffffffffffffffff169050816000806101000a81548173ffffffffffffffffffffffffffffffffffffffff021916908373ffffffffffffffffffffffffffffffffffffffff1602179055508173ffffffffffffffffffffffffffffffffffffffff168173ffffffffffffffffffffffffffffffffffffffff167f8be0079c531659141344cd1fd0a4f28419497f9722a3daafe3b4186f6b6457e060405160405180910390a35050565b600060018054610323919061078d565b6001819055506001549050919050565b600033905090565b600073ffffffffffffffffffffffffffffffffffffffff82169050919050565b60006103668261033b565b9050919050565b6103768161035b565b82525050565b6000602082019050610391600083018461036d565b92915050565b6000604051905090565b600080fd5b600080fd5b600080fd5b600080fd5b6000601f19601f8301169050919050565b7f4e487b7100000000000000000000000000000000000000000000000000000000600052604160045260246000fd5b6103fe826103b5565b810181811067ffffffffffffffff8211171561041d5761041c6103c6565b5b80604052505050565b6000610430610397565b905061043c82826103f5565b919050565b600067ffffffffffffffff82111561045c5761045b6103c6565b5b610465826103b5565b9050602081019050919050565b82818337600083830152505050565b600061049461048f84610441565b610426565b9050828152602081018484840111156104b0576104af6103b0565b5b6104bb848285610472565b509392505050565b600082601f8301126104d8576104d76103ab565b5b81356104e8848260208601610481565b91505092915050565b600060208284031215610507576105066103a1565b5b600082013567ffffffffffffffff811115610525576105246103a6565b5b610531848285016104c3565b91505092915050565b6105438161035b565b811461054e57600080fd5b50565b6000813590506105608161053a565b92915050565b60006020828403121561057c5761057b6103a1565b5b600061058a84828501610551565b91505092915050565b600081519050919050565b600081905092915050565b60005b838110156105c75780820151818401526020810190506105ac565b60008484015250505050565b60006105de82610593565b6105e8818561059e565b93506105f88185602086016105a9565b80840191505092915050565b600061061082846105d3565b915081905092915050565b6000819050919050565b61062e8161061b565b82525050565b60006020820190506106496000830184610625565b92915050565b600082825260208201905092915050565b7f4f776e61626c653a206e6577206f776e657220697320746865207a65726f206160008201527f6464726573730000000000000000000000000000000000000000000000000000602082015250565b60006106bc60268361064f565b91506106c782610660565b604082019050919050565b600060208201905081810360008301526106eb816106af565b9050919050565b7f4f776e61626c653a2063616c6c6572206973206e6f7420746865206f776e6572600082015250565b600061072860208361064f565b9150610733826106f2565b602082019050919050565b600060208201905081810360008301526107578161071b565b9050919050565b7f4e487b7100000000000000000000000000000000000000000000000000000000600052601160045260246000fd5b60006107988261061b565b91506107a38361061b565b92508282019050808211156107bb576107ba61075e565b5b9291505056fea26469706673582212201ade411fff02378e05aece4be17f5912956e4b2b82dd1c31fc8aaff0962b9ed364736f6c63430008130033",
  "immutableReferences": {},
  "source": "// SPDX-License-Identifier: MIT\npragma solidity ^0.8.9;\n\nimport \"@openzeppelin/contracts/access/Ownable.sol\";\n//import \"https://raw.githubusercontent.com/smartcontractkit/chainlink/develop/evm-contracts/src/v0.6/VRFConsumerBase.sol\";\n\ncontract RecordAdder is Ownable {\n    \n    uint curr_id;\n\n    constructor() public {\n        curr_id = 0;\n    }\n\n    event recordAdded(\n        string indexed dipID, \n        uint ptr\n    );\n\n    function addRecord(string memory dipID) public onlyOwner{\n        emit recordAdded(dipID, _generateUPtr(dipID));\n    }\n\n    function _generateUPtr(string memory dipID) private returns(uint ptr){\n        curr_id = curr_id + 1;\n        return curr_id;\n    }\n}",
  "sourcePath": "/mnt/c/Users/Hannan/Desktop/blockchainDev/diplomanator/truffle/contracts/transactions.sol",
  "compiler": {
    "name": "solc",
    "version": "0.8.19+commit.7dd6d404.Emscripten.clang"
  },
  "schemaVersion": "3.4.13",
  "updatedAt": "2023-04-12T22:34:46.176Z",
  "networkType": "ethereum",
  "devdoc": {
    "kind": "dev",
    "methods": {
      "owner()": {
        "details": "Returns the address of the current owner."
      },
      "renounceOwnership()": {
        "details": "Leaves the contract without owner. It will not be possible to call `onlyOwner` functions anymore. Can only be called by the current owner. NOTE: Renouncing ownership will leave the contract without an owner, thereby removing any functionality that is only available to the owner."
      },
      "transferOwnership(address)": {
        "details": "Transfers ownership of the contract to a new account (`newOwner`). Can only be called by the current owner."
      }
    },
    "version": 1
  },
  "userdoc": {
    "kind": "user",
    "methods": {},
    "version": 1
  }
}